{
  "_format": "hh-sol-artifact-1",
  "contractName": "NftCollection",
  "sourceName": "contracts/NftCollection.sol",
  "abi": [
    {
      "inputs": [
        {
          "internalType": "string",
          "name": "name_",
          "type": "string"
        },
        {
          "internalType": "string",
          "name": "symbol_",
          "type": "string"
        },
        {
          "internalType": "uint256",
          "name": "maxSupply_",
          "type": "uint256"
        },
        {
          "internalType": "string",
          "name": "baseURI_",
          "type": "string"
        }
      ],
      "stateMutability": "nonpayable",
      "type": "constructor"
    },
    {
      "anonymous": false,
      "inputs": [
        {
          "indexed": true,
          "internalType": "address",
          "name": "owner",
          "type": "address"
        },
        {
          "indexed": true,
          "internalType": "address",
          "name": "approved",
          "type": "address"
        },
        {
          "indexed": true,
          "internalType": "uint256",
          "name": "tokenId",
          "type": "uint256"
        }
      ],
      "name": "Approval",
      "type": "event"
    },
    {
      "anonymous": false,
      "inputs": [
        {
          "indexed": true,
          "internalType": "address",
          "name": "owner",
          "type": "address"
        },
        {
          "indexed": true,
          "internalType": "address",
          "name": "operator",
          "type": "address"
        },
        {
          "indexed": false,
          "internalType": "bool",
          "name": "approved",
          "type": "bool"
        }
      ],
      "name": "ApprovalForAll",
      "type": "event"
    },
    {
      "anonymous": false,
      "inputs": [
        {
          "indexed": false,
          "internalType": "uint256",
          "name": "_fromTokenId",
          "type": "uint256"
        },
        {
          "indexed": false,
          "internalType": "uint256",
          "name": "_toTokenId",
          "type": "uint256"
        }
      ],
      "name": "BatchMetadataUpdate",
      "type": "event"
    },
    {
      "anonymous": false,
      "inputs": [
        {
          "indexed": false,
          "internalType": "uint256",
          "name": "_tokenId",
          "type": "uint256"
        }
      ],
      "name": "MetadataUpdate",
      "type": "event"
    },
    {
      "anonymous": false,
      "inputs": [
        {
          "indexed": true,
          "internalType": "address",
          "name": "to",
          "type": "address"
        },
        {
          "indexed": true,
          "internalType": "uint256",
          "name": "tokenId",
          "type": "uint256"
        },
        {
          "indexed": false,
          "internalType": "string",
          "name": "tokenURI",
          "type": "string"
        }
      ],
      "name": "Minted",
      "type": "event"
    },
    {
      "anonymous": false,
      "inputs": [
        {
          "indexed": true,
          "internalType": "address",
          "name": "previousOwner",
          "type": "address"
        },
        {
          "indexed": true,
          "internalType": "address",
          "name": "newOwner",
          "type": "address"
        }
      ],
      "name": "OwnershipTransferred",
      "type": "event"
    },
    {
      "anonymous": false,
      "inputs": [
        {
          "indexed": false,
          "internalType": "address",
          "name": "account",
          "type": "address"
        }
      ],
      "name": "Paused",
      "type": "event"
    },
    {
      "anonymous": false,
      "inputs": [
        {
          "indexed": true,
          "internalType": "address",
          "name": "from",
          "type": "address"
        },
        {
          "indexed": true,
          "internalType": "address",
          "name": "to",
          "type": "address"
        },
        {
          "indexed": true,
          "internalType": "uint256",
          "name": "tokenId",
          "type": "uint256"
        }
      ],
      "name": "Transfer",
      "type": "event"
    },
    {
      "anonymous": false,
      "inputs": [
        {
          "indexed": false,
          "internalType": "address",
          "name": "account",
          "type": "address"
        }
      ],
      "name": "Unpaused",
      "type": "event"
    },
    {
      "inputs": [
        {
          "internalType": "address",
          "name": "to",
          "type": "address"
        },
        {
          "internalType": "uint256",
          "name": "tokenId",
          "type": "uint256"
        }
      ],
      "name": "approve",
      "outputs": [],
      "stateMutability": "nonpayable",
      "type": "function"
    },
    {
      "inputs": [
        {
          "internalType": "address",
          "name": "owner",
          "type": "address"
        }
      ],
      "name": "balanceOf",
      "outputs": [
        {
          "internalType": "uint256",
          "name": "",
          "type": "uint256"
        }
      ],
      "stateMutability": "view",
      "type": "function"
    },
    {
      "inputs": [
        {
          "internalType": "uint256",
          "name": "tokenId",
          "type": "uint256"
        }
      ],
      "name": "burn",
      "outputs": [],
      "stateMutability": "nonpayable",
      "type": "function"
    },
    {
      "inputs": [
        {
          "internalType": "uint256",
          "name": "tokenId",
          "type": "uint256"
        }
      ],
      "name": "getApproved",
      "outputs": [
        {
          "internalType": "address",
          "name": "",
          "type": "address"
        }
      ],
      "stateMutability": "view",
      "type": "function"
    },
    {
      "inputs": [
        {
          "internalType": "address",
          "name": "owner",
          "type": "address"
        },
        {
          "internalType": "address",
          "name": "operator",
          "type": "address"
        }
      ],
      "name": "isApprovedForAll",
      "outputs": [
        {
          "internalType": "bool",
          "name": "",
          "type": "bool"
        }
      ],
      "stateMutability": "view",
      "type": "function"
    },
    {
      "inputs": [],
      "name": "maxSupply",
      "outputs": [
        {
          "internalType": "uint256",
          "name": "",
          "type": "uint256"
        }
      ],
      "stateMutability": "view",
      "type": "function"
    },
    {
      "inputs": [
        {
          "internalType": "address",
          "name": "to",
          "type": "address"
        },
        {
          "internalType": "string",
          "name": "tokenURI_",
          "type": "string"
        }
      ],
      "name": "mint",
      "outputs": [
        {
          "internalType": "uint256",
          "name": "",
          "type": "uint256"
        }
      ],
      "stateMutability": "nonpayable",
      "type": "function"
    },
    {
      "inputs": [],
      "name": "name",
      "outputs": [
        {
          "internalType": "string",
          "name": "",
          "type": "string"
        }
      ],
      "stateMutability": "view",
      "type": "function"
    },
    {
      "inputs": [],
      "name": "owner",
      "outputs": [
        {
          "internalType": "address",
          "name": "",
          "type": "address"
        }
      ],
      "stateMutability": "view",
      "type": "function"
    },
    {
      "inputs": [
        {
          "internalType": "uint256",
          "name": "tokenId",
          "type": "uint256"
        }
      ],
      "name": "ownerOf",
      "outputs": [
        {
          "internalType": "address",
          "name": "",
          "type": "address"
        }
      ],
      "stateMutability": "view",
      "type": "function"
    },
    {
      "inputs": [],
      "name": "pause",
      "outputs": [],
      "stateMutability": "nonpayable",
      "type": "function"
    },
    {
      "inputs": [],
      "name": "paused",
      "outputs": [
        {
          "internalType": "bool",
          "name": "",
          "type": "bool"
        }
      ],
      "stateMutability": "view",
      "type": "function"
    },
    {
      "inputs": [],
      "name": "renounceOwnership",
      "outputs": [],
      "stateMutability": "nonpayable",
      "type": "function"
    },
    {
      "inputs": [
        {
          "internalType": "address",
          "name": "from",
          "type": "address"
        },
        {
          "internalType": "address",
          "name": "to",
          "type": "address"
        },
        {
          "internalType": "uint256",
          "name": "tokenId",
          "type": "uint256"
        }
      ],
      "name": "safeTransferFrom",
      "outputs": [],
      "stateMutability": "nonpayable",
      "type": "function"
    },
    {
      "inputs": [
        {
          "internalType": "address",
          "name": "from",
          "type": "address"
        },
        {
          "internalType": "address",
          "name": "to",
          "type": "address"
        },
        {
          "internalType": "uint256",
          "name": "tokenId",
          "type": "uint256"
        },
        {
          "internalType": "bytes",
          "name": "data",
          "type": "bytes"
        }
      ],
      "name": "safeTransferFrom",
      "outputs": [],
      "stateMutability": "nonpayable",
      "type": "function"
    },
    {
      "inputs": [
        {
          "internalType": "address",
          "name": "operator",
          "type": "address"
        },
        {
          "internalType": "bool",
          "name": "approved",
          "type": "bool"
        }
      ],
      "name": "setApprovalForAll",
      "outputs": [],
      "stateMutability": "nonpayable",
      "type": "function"
    },
    {
      "inputs": [
        {
          "internalType": "string",
          "name": "newBase",
          "type": "string"
        }
      ],
      "name": "setBaseURI",
      "outputs": [],
      "stateMutability": "nonpayable",
      "type": "function"
    },
    {
      "inputs": [
        {
          "internalType": "bytes4",
          "name": "interfaceId",
          "type": "bytes4"
        }
      ],
      "name": "supportsInterface",
      "outputs": [
        {
          "internalType": "bool",
          "name": "",
          "type": "bool"
        }
      ],
      "stateMutability": "view",
      "type": "function"
    },
    {
      "inputs": [],
      "name": "symbol",
      "outputs": [
        {
          "internalType": "string",
          "name": "",
          "type": "string"
        }
      ],
      "stateMutability": "view",
      "type": "function"
    },
    {
      "inputs": [
        {
          "internalType": "uint256",
          "name": "tokenId",
          "type": "uint256"
        }
      ],
      "name": "tokenURI",
      "outputs": [
        {
          "internalType": "string",
          "name": "",
          "type": "string"
        }
      ],
      "stateMutability": "view",
      "type": "function"
    },
    {
      "inputs": [],
      "name": "totalSupply",
      "outputs": [
        {
          "internalType": "uint256",
          "name": "",
          "type": "uint256"
        }
      ],
      "stateMutability": "view",
      "type": "function"
    },
    {
      "inputs": [
        {
          "internalType": "address",
          "name": "from",
          "type": "address"
        },
        {
          "internalType": "address",
          "name": "to",
          "type": "address"
        },
        {
          "internalType": "uint256",
          "name": "tokenId",
          "type": "uint256"
        }
      ],
      "name": "transferFrom",
      "outputs": [],
      "stateMutability": "nonpayable",
      "type": "function"
    },
    {
      "inputs": [
        {
          "internalType": "address",
          "name": "newOwner",
          "type": "address"
        }
      ],
      "name": "transferOwnership",
      "outputs": [],
      "stateMutability": "nonpayable",
      "type": "function"
    },
    {
      "inputs": [],
      "name": "unpause",
      "outputs": [],
      "stateMutability": "nonpayable",
      "type": "function"
    }
  ],
  "bytecode": "0x60a06040523480156200001157600080fd5b50604051620041a2380380620041a28339818101604052810190620000379190620003a0565b838381600090816200004a9190620006b0565b5080600190816200005c9190620006b0565b5050506200007f620000736200010460201b60201c565b6200010c60201b60201c565b6000600760146101000a81548160ff02191690831515021790555060008211620000e0576040517f08c379a0000000000000000000000000000000000000000000000000000000008152600401620000d790620007f8565b60405180910390fd5b81608081815250508060099081620000f99190620006b0565b50505050506200081a565b600033905090565b6000600760009054906101000a900473ffffffffffffffffffffffffffffffffffffffff16905081600760006101000a81548173ffffffffffffffffffffffffffffffffffffffff021916908373ffffffffffffffffffffffffffffffffffffffff1602179055508173ffffffffffffffffffffffffffffffffffffffff168173ffffffffffffffffffffffffffffffffffffffff167f8be0079c531659141344cd1fd0a4f28419497f9722a3daafe3b4186f6b6457e060405160405180910390a35050565b6000604051905090565b600080fd5b600080fd5b600080fd5b600080fd5b6000601f19601f8301169050919050565b7f4e487b7100000000000000000000000000000000000000000000000000000000600052604160045260246000fd5b6200023b82620001f0565b810181811067ffffffffffffffff821117156200025d576200025c62000201565b5b80604052505050565b600062000272620001d2565b905062000280828262000230565b919050565b600067ffffffffffffffff821115620002a357620002a262000201565b5b620002ae82620001f0565b9050602081019050919050565b60005b83811015620002db578082015181840152602081019050620002be565b60008484015250505050565b6000620002fe620002f88462000285565b62000266565b9050828152602081018484840111156200031d576200031c620001eb565b5b6200032a848285620002bb565b509392505050565b600082601f8301126200034a5762000349620001e6565b5b81516200035c848260208601620002e7565b91505092915050565b6000819050919050565b6200037a8162000365565b81146200038657600080fd5b50565b6000815190506200039a816200036f565b92915050565b60008060008060808587031215620003bd57620003bc620001dc565b5b600085015167ffffffffffffffff811115620003de57620003dd620001e1565b5b620003ec8782880162000332565b945050602085015167ffffffffffffffff81111562000410576200040f620001e1565b5b6200041e8782880162000332565b9350506040620004318782880162000389565b925050606085015167ffffffffffffffff811115620004555762000454620001e1565b5b620004638782880162000332565b91505092959194509250565b600081519050919050565b7f4e487b7100000000000000000000000000000000000000000000000000000000600052602260045260246000fd5b60006002820490506001821680620004c257607f821691505b602082108103620004d857620004d76200047a565b5b50919050565b60008190508160005260206000209050919050565b60006020601f8301049050919050565b600082821b905092915050565b600060088302620005427fffffffffffffffffffffffffffffffffffffffffffffffffffffffffffffffff8262000503565b6200054e868362000503565b95508019841693508086168417925050509392505050565b6000819050919050565b6000620005916200058b620005858462000365565b62000566565b62000365565b9050919050565b6000819050919050565b620005ad8362000570565b620005c5620005bc8262000598565b84845462000510565b825550505050565b600090565b620005dc620005cd565b620005e9818484620005a2565b505050565b5b81811015620006115762000605600082620005d2565b600181019050620005ef565b5050565b601f82111562000660576200062a81620004de565b6200063584620004f3565b8101602085101562000645578190505b6200065d6200065485620004f3565b830182620005ee565b50505b505050565b600082821c905092915050565b6000620006856000198460080262000665565b1980831691505092915050565b6000620006a0838362000672565b9150826002028217905092915050565b620006bb826200046f565b67ffffffffffffffff811115620006d757620006d662000201565b5b620006e38254620004a9565b620006f082828562000615565b600060209050601f83116001811462000728576000841562000713578287015190505b6200071f858262000692565b8655506200078f565b601f1984166200073886620004de565b60005b8281101562000762578489015182556001820191506020850194506020810190506200073b565b868310156200078257848901516200077e601f89168262000672565b8355505b6001600288020188555050505b505050505050565b600082825260208201905092915050565b7f6d6178537570706c79206d757374206265203e20300000000000000000000000600082015250565b6000620007e060158362000797565b9150620007ed82620007a8565b602082019050919050565b600060208201905081810360008301526200081381620007d1565b9050919050565b6080516139656200083d60003960008181610cdd0152610dd001526139656000f3fe608060405234801561001057600080fd5b50600436106101585760003560e01c806370a08231116100c3578063b88d4fde1161007c578063b88d4fde14610379578063c87b56dd14610395578063d0def521146103c5578063d5abeb01146103f5578063e985e9c514610413578063f2fde38b1461044357610158565b806370a08231146102dd578063715018a61461030d5780638456cb59146103175780638da5cb5b1461032157806395d89b411461033f578063a22cb4651461035d57610158565b80633f4ba83a116101155780633f4ba83a1461023157806342842e0e1461023b57806342966c681461025757806355f804b3146102735780635c975abb1461028f5780636352211e146102ad57610158565b806301ffc9a71461015d57806306fdde031461018d578063081812fc146101ab578063095ea7b3146101db57806318160ddd146101f757806323b872dd14610215575b600080fd5b61017760048036038101906101729190612485565b61045f565b60405161018491906124cd565b60405180910390f35b6101956104c0565b6040516101a29190612578565b60405180910390f35b6101c560048036038101906101c091906125d0565b610552565b6040516101d2919061263e565b60405180910390f35b6101f560048036038101906101f09190612685565b610598565b005b6101ff6106af565b60405161020c91906126d4565b60405180910390f35b61022f600480360381019061022a91906126ef565b6106c0565b005b610239610720565b005b610255600480360381019061025091906126ef565b610732565b005b610271600480360381019061026c91906125d0565b610752565b005b61028d60048036038101906102889190612877565b610871565b005b61029761088c565b6040516102a491906124cd565b60405180910390f35b6102c760048036038101906102c291906125d0565b6108a3565b6040516102d4919061263e565b60405180910390f35b6102f760048036038101906102f291906128c0565b610929565b60405161030491906126d4565b60405180910390f35b6103156109e0565b005b61031f6109f4565b005b610329610a06565b604051610336919061263e565b60405180910390f35b610347610a30565b6040516103549190612578565b60405180910390f35b61037760048036038101906103729190612919565b610ac2565b005b610393600480360381019061038e91906129fa565b610ad8565b005b6103af60048036038101906103aa91906125d0565b610b3a565b6040516103bc9190612578565b60405180910390f35b6103df60048036038101906103da9190612a7d565b610c4c565b6040516103ec91906126d4565b60405180910390f35b6103fd610dce565b60405161040a91906126d4565b60405180910390f35b61042d60048036038101906104289190612ad9565b610df2565b60405161043a91906124cd565b60405180910390f35b61045d600480360381019061045891906128c0565b610e86565b005b6000634906490660e01b7bffffffffffffffffffffffffffffffffffffffffffffffffffffffff1916827bffffffffffffffffffffffffffffffffffffffffffffffffffffffff191614806104b957506104b882610f09565b5b9050919050565b6060600080546104cf90612b48565b80601f01602080910402602001604051908101604052809291908181526020018280546104fb90612b48565b80156105485780601f1061051d57610100808354040283529160200191610548565b820191906000526020600020905b81548152906001019060200180831161052b57829003601f168201915b5050505050905090565b600061055d82610feb565b6004600083815260200190815260200160002060009054906101000a900473ffffffffffffffffffffffffffffffffffffffff169050919050565b60006105a3826108a3565b90508073ffffffffffffffffffffffffffffffffffffffff168373ffffffffffffffffffffffffffffffffffffffff1603610613576040517f08c379a000000000000000000000000000000000000000000000000000000000815260040161060a90612beb565b60405180910390fd5b8073ffffffffffffffffffffffffffffffffffffffff16610632611036565b73ffffffffffffffffffffffffffffffffffffffff16148061066157506106608161065b611036565b610df2565b5b6106a0576040517f08c379a000000000000000000000000000000000000000000000000000000000815260040161069790612c7d565b60405180910390fd5b6106aa838361103e565b505050565b60006106bb60086110f7565b905090565b6106d16106cb611036565b82611105565b610710576040517f08c379a000000000000000000000000000000000000000000000000000000000815260040161070790612d0f565b60405180910390fd5b61071b83838361119a565b505050565b610728611493565b610730611511565b565b61074d83838360405180602001604052806000815250610ad8565b505050565b61075b81611574565b61079a576040517f08c379a000000000000000000000000000000000000000000000000000000000815260040161079190612d7b565b60405180910390fd5b60006107a5826108a3565b90508073ffffffffffffffffffffffffffffffffffffffff163373ffffffffffffffffffffffffffffffffffffffff16148061081457503373ffffffffffffffffffffffffffffffffffffffff166107fc83610552565b73ffffffffffffffffffffffffffffffffffffffff16145b8061082557506108248133610df2565b5b610864576040517f08c379a000000000000000000000000000000000000000000000000000000000815260040161085b90612de7565b60405180910390fd5b61086d826115b5565b5050565b610879611493565b80600990816108889190612fb3565b5050565b6000600760149054906101000a900460ff16905090565b6000806108af83611608565b9050600073ffffffffffffffffffffffffffffffffffffffff168173ffffffffffffffffffffffffffffffffffffffff1603610920576040517f08c379a0000000000000000000000000000000000000000000000000000000008152600401610917906130d1565b60405180910390fd5b80915050919050565b60008073ffffffffffffffffffffffffffffffffffffffff168273ffffffffffffffffffffffffffffffffffffffff1603610999576040517f08c379a000000000000000000000000000000000000000000000000000000000815260040161099090613163565b60405180910390fd5b600360008373ffffffffffffffffffffffffffffffffffffffff1673ffffffffffffffffffffffffffffffffffffffff168152602001908152602001600020549050919050565b6109e8611493565b6109f26000611645565b565b6109fc611493565b610a0461170b565b565b6000600760009054906101000a900473ffffffffffffffffffffffffffffffffffffffff16905090565b606060018054610a3f90612b48565b80601f0160208091040260200160405190810160405280929190818152602001828054610a6b90612b48565b8015610ab85780601f10610a8d57610100808354040283529160200191610ab8565b820191906000526020600020905b815481529060010190602001808311610a9b57829003601f168201915b5050505050905090565b610ad4610acd611036565b838361176e565b5050565b610ae9610ae3611036565b83611105565b610b28576040517f08c379a0000000000000000000000000000000000000000000000000000000008152600401610b1f90612d0f565b60405180910390fd5b610b34848484846118da565b50505050565b6060610b4582610feb565b6000600660008481526020019081526020016000208054610b6590612b48565b80601f0160208091040260200160405190810160405280929190818152602001828054610b9190612b48565b8015610bde5780601f10610bb357610100808354040283529160200191610bde565b820191906000526020600020905b815481529060010190602001808311610bc157829003601f168201915b505050505090506000610bef611936565b90506000815103610c04578192505050610c47565b600082511115610c39578082604051602001610c219291906131bf565b60405160208183030381529060405292505050610c47565b610c42846119c8565b925050505b919050565b6000610c56611493565b610c5e611a30565b600073ffffffffffffffffffffffffffffffffffffffff168373ffffffffffffffffffffffffffffffffffffffff1603610ccd576040517f08c379a0000000000000000000000000000000000000000000000000000000008152600401610cc49061322f565b60405180910390fd5b6000610cd960086110f7565b90507f00000000000000000000000000000000000000000000000000000000000000008110610d3d576040517f08c379a0000000000000000000000000000000000000000000000000000000008152600401610d349061329b565b60405180910390fd5b610d476008611a7a565b6000610d5360086110f7565b9050610d5f8582611a90565b600084511115610d7457610d738185611aae565b5b808573ffffffffffffffffffffffffffffffffffffffff167fe7cd4ce7f2a465edc730269a1305e8a48bad821e8fb7e152ec413829c01a53c486604051610dbb9190612578565b60405180910390a3809250505092915050565b7f000000000000000000000000000000000000000000000000000000000000000081565b6000600560008473ffffffffffffffffffffffffffffffffffffffff1673ffffffffffffffffffffffffffffffffffffffff16815260200190815260200160002060008373ffffffffffffffffffffffffffffffffffffffff1673ffffffffffffffffffffffffffffffffffffffff16815260200190815260200160002060009054906101000a900460ff16905092915050565b610e8e611493565b600073ffffffffffffffffffffffffffffffffffffffff168173ffffffffffffffffffffffffffffffffffffffff1603610efd576040517f08c379a0000000000000000000000000000000000000000000000000000000008152600401610ef49061332d565b60405180910390fd5b610f0681611645565b50565b60007f80ac58cd000000000000000000000000000000000000000000000000000000007bffffffffffffffffffffffffffffffffffffffffffffffffffffffff1916827bffffffffffffffffffffffffffffffffffffffffffffffffffffffff19161480610fd457507f5b5e139f000000000000000000000000000000000000000000000000000000007bffffffffffffffffffffffffffffffffffffffffffffffffffffffff1916827bffffffffffffffffffffffffffffffffffffffffffffffffffffffff1916145b80610fe45750610fe382611b52565b5b9050919050565b610ff481611574565b611033576040517f08c379a000000000000000000000000000000000000000000000000000000000815260040161102a906130d1565b60405180910390fd5b50565b600033905090565b816004600083815260200190815260200160002060006101000a81548173ffffffffffffffffffffffffffffffffffffffff021916908373ffffffffffffffffffffffffffffffffffffffff160217905550808273ffffffffffffffffffffffffffffffffffffffff166110b1836108a3565b73ffffffffffffffffffffffffffffffffffffffff167f8c5be1e5ebec7d5bd14f71427d1e84f3dd0314c0f7b2291e5b200ac8c7c3b92560405160405180910390a45050565b600081600001549050919050565b600080611111836108a3565b90508073ffffffffffffffffffffffffffffffffffffffff168473ffffffffffffffffffffffffffffffffffffffff16148061115357506111528185610df2565b5b8061119157508373ffffffffffffffffffffffffffffffffffffffff1661117984610552565b73ffffffffffffffffffffffffffffffffffffffff16145b91505092915050565b8273ffffffffffffffffffffffffffffffffffffffff166111ba826108a3565b73ffffffffffffffffffffffffffffffffffffffff1614611210576040517f08c379a0000000000000000000000000000000000000000000000000000000008152600401611207906133bf565b60405180910390fd5b600073ffffffffffffffffffffffffffffffffffffffff168273ffffffffffffffffffffffffffffffffffffffff160361127f576040517f08c379a000000000000000000000000000000000000000000000000000000000815260040161127690613451565b60405180910390fd5b61128c8383836001611bbc565b8273ffffffffffffffffffffffffffffffffffffffff166112ac826108a3565b73ffffffffffffffffffffffffffffffffffffffff1614611302576040517f08c379a00000000000000000000000000000000000000000000000000000000081526004016112f9906133bf565b60405180910390fd5b6004600082815260200190815260200160002060006101000a81549073ffffffffffffffffffffffffffffffffffffffff02191690556001600360008573ffffffffffffffffffffffffffffffffffffffff1673ffffffffffffffffffffffffffffffffffffffff168152602001908152602001600020600082825403925050819055506001600360008473ffffffffffffffffffffffffffffffffffffffff1673ffffffffffffffffffffffffffffffffffffffff16815260200190815260200160002060008282540192505081905550816002600083815260200190815260200160002060006101000a81548173ffffffffffffffffffffffffffffffffffffffff021916908373ffffffffffffffffffffffffffffffffffffffff160217905550808273ffffffffffffffffffffffffffffffffffffffff168473ffffffffffffffffffffffffffffffffffffffff167fddf252ad1be2c89b69c2b068fc378daa952ba7f163c4a11628f55a4df523b3ef60405160405180910390a461148e8383836001611bd6565b505050565b61149b611036565b73ffffffffffffffffffffffffffffffffffffffff166114b9610a06565b73ffffffffffffffffffffffffffffffffffffffff161461150f576040517f08c379a0000000000000000000000000000000000000000000000000000000008152600401611506906134bd565b60405180910390fd5b565b611519611bdc565b6000600760146101000a81548160ff0219169083151502179055507f5db9ee0a495bf2e6ff9c91a7834c1ba4fdd244a5e8aa4e537bd38aeae4b073aa61155d611036565b60405161156a919061263e565b60405180910390a1565b60008073ffffffffffffffffffffffffffffffffffffffff1661159683611608565b73ffffffffffffffffffffffffffffffffffffffff1614159050919050565b6115be81611c25565b60006006600083815260200190815260200160002080546115de90612b48565b9050146116055760066000828152602001908152602001600020600061160491906123bc565b5b50565b60006002600083815260200190815260200160002060009054906101000a900473ffffffffffffffffffffffffffffffffffffffff169050919050565b6000600760009054906101000a900473ffffffffffffffffffffffffffffffffffffffff16905081600760006101000a81548173ffffffffffffffffffffffffffffffffffffffff021916908373ffffffffffffffffffffffffffffffffffffffff1602179055508173ffffffffffffffffffffffffffffffffffffffff168173ffffffffffffffffffffffffffffffffffffffff167f8be0079c531659141344cd1fd0a4f28419497f9722a3daafe3b4186f6b6457e060405160405180910390a35050565b611713611a30565b6001600760146101000a81548160ff0219169083151502179055507f62e78cea01bee320cd4e420270b5ea74000d11b0c9f74754ebdbfc544b05a258611757611036565b604051611764919061263e565b60405180910390a1565b8173ffffffffffffffffffffffffffffffffffffffff168373ffffffffffffffffffffffffffffffffffffffff16036117dc576040517f08c379a00000000000000000000000000000000000000000000000000000000081526004016117d390613529565b60405180910390fd5b80600560008573ffffffffffffffffffffffffffffffffffffffff1673ffffffffffffffffffffffffffffffffffffffff16815260200190815260200160002060008473ffffffffffffffffffffffffffffffffffffffff1673ffffffffffffffffffffffffffffffffffffffff16815260200190815260200160002060006101000a81548160ff0219169083151502179055508173ffffffffffffffffffffffffffffffffffffffff168373ffffffffffffffffffffffffffffffffffffffff167f17307eab39ab6107e8899845ad3d59bd9653f200f220920489ca2b5937696c31836040516118cd91906124cd565b60405180910390a3505050565b6118e584848461119a565b6118f184848484611d73565b611930576040517f08c379a0000000000000000000000000000000000000000000000000000000008152600401611927906135bb565b60405180910390fd5b50505050565b60606009805461194590612b48565b80601f016020809104026020016040519081016040528092919081815260200182805461197190612b48565b80156119be5780601f10611993576101008083540402835291602001916119be565b820191906000526020600020905b8154815290600101906020018083116119a157829003601f168201915b5050505050905090565b60606119d382610feb565b60006119dd611936565b905060008151116119fd5760405180602001604052806000815250611a28565b80611a0784611efa565b604051602001611a189291906131bf565b6040516020818303038152906040525b915050919050565b611a3861088c565b15611a78576040517f08c379a0000000000000000000000000000000000000000000000000000000008152600401611a6f90613627565b60405180910390fd5b565b6001816000016000828254019250508190555050565b611aaa828260405180602001604052806000815250611fc8565b5050565b611ab782611574565b611af6576040517f08c379a0000000000000000000000000000000000000000000000000000000008152600401611aed906136b9565b60405180910390fd5b80600660008481526020019081526020016000209081611b169190612fb3565b507ff8e1a15aba9398e019f0b49df1a4fde98ee17ae345cb5f6b5e2c27f5033e8ce782604051611b4691906126d4565b60405180910390a15050565b60007f01ffc9a7000000000000000000000000000000000000000000000000000000007bffffffffffffffffffffffffffffffffffffffffffffffffffffffff1916827bffffffffffffffffffffffffffffffffffffffffffffffffffffffff1916149050919050565b611bc4611a30565b611bd084848484612023565b50505050565b50505050565b611be461088c565b611c23576040517f08c379a0000000000000000000000000000000000000000000000000000000008152600401611c1a90613725565b60405180910390fd5b565b6000611c30826108a3565b9050611c40816000846001611bbc565b611c49826108a3565b90506004600083815260200190815260200160002060006101000a81549073ffffffffffffffffffffffffffffffffffffffff02191690556001600360008373ffffffffffffffffffffffffffffffffffffffff1673ffffffffffffffffffffffffffffffffffffffff168152602001908152602001600020600082825403925050819055506002600083815260200190815260200160002060006101000a81549073ffffffffffffffffffffffffffffffffffffffff021916905581600073ffffffffffffffffffffffffffffffffffffffff168273ffffffffffffffffffffffffffffffffffffffff167fddf252ad1be2c89b69c2b068fc378daa952ba7f163c4a11628f55a4df523b3ef60405160405180910390a4611d6f816000846001611bd6565b5050565b6000611d948473ffffffffffffffffffffffffffffffffffffffff16612029565b15611eed578373ffffffffffffffffffffffffffffffffffffffff1663150b7a02611dbd611036565b8786866040518563ffffffff1660e01b8152600401611ddf949392919061379a565b6020604051808303816000875af1925050508015611e1b57506040513d601f19601f82011682018060405250810190611e1891906137fb565b60015b611e9d573d8060008114611e4b576040519150601f19603f3d011682016040523d82523d6000602084013e611e50565b606091505b506000815103611e95576040517f08c379a0000000000000000000000000000000000000000000000000000000008152600401611e8c906135bb565b60405180910390fd5b805181602001fd5b63150b7a0260e01b7bffffffffffffffffffffffffffffffffffffffffffffffffffffffff1916817bffffffffffffffffffffffffffffffffffffffffffffffffffffffff191614915050611ef2565b600190505b949350505050565b606060006001611f098461204c565b01905060008167ffffffffffffffff811115611f2857611f2761274c565b5b6040519080825280601f01601f191660200182016040528015611f5a5781602001600182028036833780820191505090505b509050600082602001820190505b600115611fbd578080600190039150507f3031323334353637383961626364656600000000000000000000000000000000600a86061a8153600a8581611fb157611fb0613828565b5b04945060008503611f68575b819350505050919050565b611fd2838361219f565b611fdf6000848484611d73565b61201e576040517f08c379a0000000000000000000000000000000000000000000000000000000008152600401612015906135bb565b60405180910390fd5b505050565b50505050565b6000808273ffffffffffffffffffffffffffffffffffffffff163b119050919050565b600080600090507a184f03e93ff9f4daa797ed6e38ed64bf6a1f01000000000000000083106120aa577a184f03e93ff9f4daa797ed6e38ed64bf6a1f01000000000000000083816120a05761209f613828565b5b0492506040810190505b6d04ee2d6d415b85acef810000000083106120e7576d04ee2d6d415b85acef810000000083816120dd576120dc613828565b5b0492506020810190505b662386f26fc10000831061211657662386f26fc10000838161210c5761210b613828565b5b0492506010810190505b6305f5e100831061213f576305f5e100838161213557612134613828565b5b0492506008810190505b612710831061216457612710838161215a57612159613828565b5b0492506004810190505b60648310612187576064838161217d5761217c613828565b5b0492506002810190505b600a8310612196576001810190505b80915050919050565b600073ffffffffffffffffffffffffffffffffffffffff168273ffffffffffffffffffffffffffffffffffffffff160361220e576040517f08c379a0000000000000000000000000000000000000000000000000000000008152600401612205906138a3565b60405180910390fd5b61221781611574565b15612257576040517f08c379a000000000000000000000000000000000000000000000000000000000815260040161224e9061390f565b60405180910390fd5b612265600083836001611bbc565b61226e81611574565b156122ae576040517f08c379a00000000000000000000000000000000000000000000000000000000081526004016122a59061390f565b60405180910390fd5b6001600360008473ffffffffffffffffffffffffffffffffffffffff1673ffffffffffffffffffffffffffffffffffffffff16815260200190815260200160002060008282540192505081905550816002600083815260200190815260200160002060006101000a81548173ffffffffffffffffffffffffffffffffffffffff021916908373ffffffffffffffffffffffffffffffffffffffff160217905550808273ffffffffffffffffffffffffffffffffffffffff16600073ffffffffffffffffffffffffffffffffffffffff167fddf252ad1be2c89b69c2b068fc378daa952ba7f163c4a11628f55a4df523b3ef60405160405180910390a46123b8600083836001611bd6565b5050565b5080546123c890612b48565b6000825580601f106123da57506123f9565b601f0160209004906000526020600020908101906123f891906123fc565b5b50565b5b808211156124155760008160009055506001016123fd565b5090565b6000604051905090565b600080fd5b600080fd5b60007fffffffff0000000000000000000000000000000000000000000000000000000082169050919050565b6124628161242d565b811461246d57600080fd5b50565b60008135905061247f81612459565b92915050565b60006020828403121561249b5761249a612423565b5b60006124a984828501612470565b91505092915050565b60008115159050919050565b6124c7816124b2565b82525050565b60006020820190506124e260008301846124be565b92915050565b600081519050919050565b600082825260208201905092915050565b60005b83811015612522578082015181840152602081019050612507565b60008484015250505050565b6000601f19601f8301169050919050565b600061254a826124e8565b61255481856124f3565b9350612564818560208601612504565b61256d8161252e565b840191505092915050565b60006020820190508181036000830152612592818461253f565b905092915050565b6000819050919050565b6125ad8161259a565b81146125b857600080fd5b50565b6000813590506125ca816125a4565b92915050565b6000602082840312156125e6576125e5612423565b5b60006125f4848285016125bb565b91505092915050565b600073ffffffffffffffffffffffffffffffffffffffff82169050919050565b6000612628826125fd565b9050919050565b6126388161261d565b82525050565b6000602082019050612653600083018461262f565b92915050565b6126628161261d565b811461266d57600080fd5b50565b60008135905061267f81612659565b92915050565b6000806040838503121561269c5761269b612423565b5b60006126aa85828601612670565b92505060206126bb858286016125bb565b9150509250929050565b6126ce8161259a565b82525050565b60006020820190506126e960008301846126c5565b92915050565b60008060006060848603121561270857612707612423565b5b600061271686828701612670565b935050602061272786828701612670565b9250506040612738868287016125bb565b9150509250925092565b600080fd5b600080fd5b7f4e487b7100000000000000000000000000000000000000000000000000000000600052604160045260246000fd5b6127848261252e565b810181811067ffffffffffffffff821117156127a3576127a261274c565b5b80604052505050565b60006127b6612419565b90506127c2828261277b565b919050565b600067ffffffffffffffff8211156127e2576127e161274c565b5b6127eb8261252e565b9050602081019050919050565b82818337600083830152505050565b600061281a612815846127c7565b6127ac565b90508281526020810184848401111561283657612835612747565b5b6128418482856127f8565b509392505050565b600082601f83011261285e5761285d612742565b5b813561286e848260208601612807565b91505092915050565b60006020828403121561288d5761288c612423565b5b600082013567ffffffffffffffff8111156128ab576128aa612428565b5b6128b784828501612849565b91505092915050565b6000602082840312156128d6576128d5612423565b5b60006128e484828501612670565b91505092915050565b6128f6816124b2565b811461290157600080fd5b50565b600081359050612913816128ed565b92915050565b600080604083850312156129305761292f612423565b5b600061293e85828601612670565b925050602061294f85828601612904565b9150509250929050565b600067ffffffffffffffff8211156129745761297361274c565b5b61297d8261252e565b9050602081019050919050565b600061299d61299884612959565b6127ac565b9050828152602081018484840111156129b9576129b8612747565b5b6129c48482856127f8565b509392505050565b600082601f8301126129e1576129e0612742565b5b81356129f184826020860161298a565b91505092915050565b60008060008060808587031215612a1457612a13612423565b5b6000612a2287828801612670565b9450506020612a3387828801612670565b9350506040612a44878288016125bb565b925050606085013567ffffffffffffffff811115612a6557612a64612428565b5b612a71878288016129cc565b91505092959194509250565b60008060408385031215612a9457612a93612423565b5b6000612aa285828601612670565b925050602083013567ffffffffffffffff811115612ac357612ac2612428565b5b612acf85828601612849565b9150509250929050565b60008060408385031215612af057612aef612423565b5b6000612afe85828601612670565b9250506020612b0f85828601612670565b9150509250929050565b7f4e487b7100000000000000000000000000000000000000000000000000000000600052602260045260246000fd5b60006002820490506001821680612b6057607f821691505b602082108103612b7357612b72612b19565b5b50919050565b7f4552433732313a20617070726f76616c20746f2063757272656e74206f776e6560008201527f7200000000000000000000000000000000000000000000000000000000000000602082015250565b6000612bd56021836124f3565b9150612be082612b79565b604082019050919050565b60006020820190508181036000830152612c0481612bc8565b9050919050565b7f4552433732313a20617070726f76652063616c6c6572206973206e6f7420746f60008201527f6b656e206f776e6572206f7220617070726f76656420666f7220616c6c000000602082015250565b6000612c67603d836124f3565b9150612c7282612c0b565b604082019050919050565b60006020820190508181036000830152612c9681612c5a565b9050919050565b7f4552433732313a2063616c6c6572206973206e6f7420746f6b656e206f776e6560008201527f72206f7220617070726f76656400000000000000000000000000000000000000602082015250565b6000612cf9602d836124f3565b9150612d0482612c9d565b604082019050919050565b60006020820190508181036000830152612d2881612cec565b9050919050565b7f6e6f6e6578697374656e7420746f6b656e000000000000000000000000000000600082015250565b6000612d656011836124f3565b9150612d7082612d2f565b602082019050919050565b60006020820190508181036000830152612d9481612d58565b9050919050565b7f6e6f7420617574686f72697a656420746f206275726e00000000000000000000600082015250565b6000612dd16016836124f3565b9150612ddc82612d9b565b602082019050919050565b60006020820190508181036000830152612e0081612dc4565b9050919050565b60008190508160005260206000209050919050565b60006020601f8301049050919050565b600082821b905092915050565b600060088302612e697fffffffffffffffffffffffffffffffffffffffffffffffffffffffffffffffff82612e2c565b612e738683612e2c565b95508019841693508086168417925050509392505050565b6000819050919050565b6000612eb0612eab612ea68461259a565b612e8b565b61259a565b9050919050565b6000819050919050565b612eca83612e95565b612ede612ed682612eb7565b848454612e39565b825550505050565b600090565b612ef3612ee6565b612efe818484612ec1565b505050565b5b81811015612f2257612f17600082612eeb565b600181019050612f04565b5050565b601f821115612f6757612f3881612e07565b612f4184612e1c565b81016020851015612f50578190505b612f64612f5c85612e1c565b830182612f03565b50505b505050565b600082821c905092915050565b6000612f8a60001984600802612f6c565b1980831691505092915050565b6000612fa38383612f79565b9150826002028217905092915050565b612fbc826124e8565b67ffffffffffffffff811115612fd557612fd461274c565b5b612fdf8254612b48565b612fea828285612f26565b600060209050601f83116001811461301d576000841561300b578287015190505b6130158582612f97565b86555061307d565b601f19841661302b86612e07565b60005b828110156130535784890151825560018201915060208501945060208101905061302e565b86831015613070578489015161306c601f891682612f79565b8355505b6001600288020188555050505b505050505050565b7f4552433732313a20696e76616c696420746f6b656e2049440000000000000000600082015250565b60006130bb6018836124f3565b91506130c682613085565b602082019050919050565b600060208201905081810360008301526130ea816130ae565b9050919050565b7f4552433732313a2061646472657373207a65726f206973206e6f74206120766160008201527f6c6964206f776e65720000000000000000000000000000000000000000000000602082015250565b600061314d6029836124f3565b9150613158826130f1565b604082019050919050565b6000602082019050818103600083015261317c81613140565b9050919050565b600081905092915050565b6000613199826124e8565b6131a38185613183565b93506131b3818560208601612504565b80840191505092915050565b60006131cb828561318e565b91506131d7828461318e565b91508190509392505050565b7f6d696e7420746f207a65726f2061646472657373000000000000000000000000600082015250565b60006132196014836124f3565b9150613224826131e3565b602082019050919050565b600060208201905081810360008301526132488161320c565b9050919050565b7f6d617820737570706c7920726561636865640000000000000000000000000000600082015250565b60006132856012836124f3565b91506132908261324f565b602082019050919050565b600060208201905081810360008301526132b481613278565b9050919050565b7f4f776e61626c653a206e6577206f776e657220697320746865207a65726f206160008201527f6464726573730000000000000000000000000000000000000000000000000000602082015250565b60006133176026836124f3565b9150613322826132bb565b604082019050919050565b600060208201905081810360008301526133468161330a565b9050919050565b7f4552433732313a207472616e736665722066726f6d20696e636f72726563742060008201527f6f776e6572000000000000000000000000000000000000000000000000000000602082015250565b60006133a96025836124f3565b91506133b48261334d565b604082019050919050565b600060208201905081810360008301526133d88161339c565b9050919050565b7f4552433732313a207472616e7366657220746f20746865207a65726f2061646460008201527f7265737300000000000000000000000000000000000000000000000000000000602082015250565b600061343b6024836124f3565b9150613446826133df565b604082019050919050565b6000602082019050818103600083015261346a8161342e565b9050919050565b7f4f776e61626c653a2063616c6c6572206973206e6f7420746865206f776e6572600082015250565b60006134a76020836124f3565b91506134b282613471565b602082019050919050565b600060208201905081810360008301526134d68161349a565b9050919050565b7f4552433732313a20617070726f766520746f2063616c6c657200000000000000600082015250565b60006135136019836124f3565b915061351e826134dd565b602082019050919050565b6000602082019050818103600083015261354281613506565b9050919050565b7f4552433732313a207472616e7366657220746f206e6f6e20455243373231526560008201527f63656976657220696d706c656d656e7465720000000000000000000000000000602082015250565b60006135a56032836124f3565b91506135b082613549565b604082019050919050565b600060208201905081810360008301526135d481613598565b9050919050565b7f5061757361626c653a2070617573656400000000000000000000000000000000600082015250565b60006136116010836124f3565b915061361c826135db565b602082019050919050565b6000602082019050818103600083015261364081613604565b9050919050565b7f45524337323155524953746f726167653a2055524920736574206f66206e6f6e60008201527f6578697374656e7420746f6b656e000000000000000000000000000000000000602082015250565b60006136a3602e836124f3565b91506136ae82613647565b604082019050919050565b600060208201905081810360008301526136d281613696565b9050919050565b7f5061757361626c653a206e6f7420706175736564000000000000000000000000600082015250565b600061370f6014836124f3565b915061371a826136d9565b602082019050919050565b6000602082019050818103600083015261373e81613702565b9050919050565b600081519050919050565b600082825260208201905092915050565b600061376c82613745565b6137768185613750565b9350613786818560208601612504565b61378f8161252e565b840191505092915050565b60006080820190506137af600083018761262f565b6137bc602083018661262f565b6137c960408301856126c5565b81810360608301526137db8184613761565b905095945050505050565b6000815190506137f581612459565b92915050565b60006020828403121561381157613810612423565b5b600061381f848285016137e6565b91505092915050565b7f4e487b7100000000000000000000000000000000000000000000000000000000600052601260045260246000fd5b7f4552433732313a206d696e7420746f20746865207a65726f2061646472657373600082015250565b600061388d6020836124f3565b915061389882613857565b602082019050919050565b600060208201905081810360008301526138bc81613880565b9050919050565b7f4552433732313a20746f6b656e20616c7265616479206d696e74656400000000600082015250565b60006138f9601c836124f3565b9150613904826138c3565b602082019050919050565b60006020820190508181036000830152613928816138ec565b905091905056fea2646970667358221220e3ee3c4c7672df9dc275dfda8642fd3289bf4cb440ed7a2ca2f86b434f2245d364736f6c63430008110033",
  "linkReferences": {},
  "deployedLinkReferences": {}
}